{
  "contractName": "Election",
  "abi": [
    {
      "constant": true,
      "inputs": [
        {
          "name": "",
          "type": "uint256"
        }
      ],
      "name": "candidates",
      "outputs": [
        {
          "name": "",
          "type": "bytes32"
        }
      ],
      "payable": false,
      "stateMutability": "view",
      "type": "function"
    },
    {
      "constant": true,
      "inputs": [],
      "name": "voterCount",
      "outputs": [
        {
          "name": "",
          "type": "uint256"
        }
      ],
      "payable": false,
      "stateMutability": "view",
      "type": "function"
    },
    {
      "constant": true,
      "inputs": [],
      "name": "closed",
      "outputs": [
        {
          "name": "",
          "type": "bool"
        }
      ],
      "payable": false,
      "stateMutability": "view",
      "type": "function"
    },
    {
      "constant": true,
      "inputs": [
        {
          "name": "",
          "type": "bytes32"
        }
      ],
      "name": "voterData",
      "outputs": [
        {
          "name": "voted",
          "type": "bool"
        },
        {
          "name": "bucket",
          "type": "bytes32"
        }
      ],
      "payable": false,
      "stateMutability": "view",
      "type": "function"
    },
    {
      "constant": true,
      "inputs": [
        {
          "name": "",
          "type": "bytes32"
        }
      ],
      "name": "candidateTable",
      "outputs": [
        {
          "name": "name",
          "type": "bytes32"
        },
        {
          "name": "bucket",
          "type": "bytes32"
        },
        {
          "name": "votes",
          "type": "uint32"
        }
      ],
      "payable": false,
      "stateMutability": "view",
      "type": "function"
    },
    {
      "constant": true,
      "inputs": [],
      "name": "candidateCount",
      "outputs": [
        {
          "name": "",
          "type": "uint256"
        }
      ],
      "payable": false,
      "stateMutability": "view",
      "type": "function"
    },
    {
      "constant": true,
      "inputs": [],
      "name": "electionOfficial",
      "outputs": [
        {
          "name": "",
          "type": "address"
        }
      ],
      "payable": false,
      "stateMutability": "view",
      "type": "function"
    },
    {
      "constant": true,
      "inputs": [
        {
          "name": "",
          "type": "uint256"
        }
      ],
      "name": "voters",
      "outputs": [
        {
          "name": "",
          "type": "bytes32"
        }
      ],
      "payable": false,
      "stateMutability": "view",
      "type": "function"
    },
    {
      "constant": true,
      "inputs": [
        {
          "name": "",
          "type": "bytes32"
        },
        {
          "name": "",
          "type": "uint256"
        }
      ],
      "name": "candidatesInBucket",
      "outputs": [
        {
          "name": "",
          "type": "bytes32"
        }
      ],
      "payable": false,
      "stateMutability": "view",
      "type": "function"
    },
    {
      "inputs": [
        {
          "name": "_voters",
          "type": "bytes32[]"
        },
        {
          "name": "_bucket",
          "type": "bytes32[]"
        },
        {
          "name": "_candidates",
          "type": "bytes32[]"
        },
        {
          "name": "_candidateBucket",
          "type": "bytes32[]"
        }
      ],
      "payable": false,
      "stateMutability": "nonpayable",
      "type": "constructor"
    },
    {
      "constant": false,
      "inputs": [
        {
          "name": "voter",
          "type": "bytes32"
        },
        {
          "name": "candidate",
          "type": "bytes32"
        }
      ],
      "name": "vote",
      "outputs": [
        {
          "name": "",
          "type": "bool"
        }
      ],
      "payable": false,
      "stateMutability": "nonpayable",
      "type": "function"
    },
    {
      "constant": false,
      "inputs": [],
      "name": "closeElection",
      "outputs": [
        {
          "name": "",
          "type": "bool"
        }
      ],
      "payable": false,
      "stateMutability": "nonpayable",
      "type": "function"
    }
  ],
  "bytecode": "0x608060405234801561001057600080fd5b50604051610ab6380380610ab683398101806040528101908080518201929190602001805182019291906020018051820192919060200180518201929190505050600061005b61032d565b61006361035b565b8551875114158061007657508351855114155b1561008057610321565b33600760016101000a81548173ffffffffffffffffffffffffffffffffffffffff021916908373ffffffffffffffffffffffffffffffffffffffff16021790555086600390805190602001906100d792919061037a565b5084600490805190602001906100ee92919061037a565b5086516005819055508451600681905550600092505b845183101561026b57606060405190810160405280868581518110151561012757fe5b90602001906020020151600019168152602001858581518110151561014857fe5b90602001906020020151600019168152602001600063ffffffff1681525091508160016000878681518110151561017b57fe5b9060200190602002015160001916600019168152602001908152602001600020600082015181600001906000191690556020820151816001019060001916905560408201518160020160006101000a81548163ffffffff021916908363ffffffff1602179055509050506002600085858151811015156101f757fe5b9060200190602002015160001916600019168152602001908152602001600020858481518110151561022557fe5b9060200190602002015190806001815401808255809150509060018203906000526020600020016000909192909190915090600019169055508280600101935050610104565b600092505b8651831015610320576040805190810160405280600015158152602001878581518110151561029b57fe5b906020019060200201516000191681525090508060008089868151811015156102c057fe5b906020019060200201516000191660001916815260200190815260200160002060008201518160000160006101000a81548160ff021916908315150217905550602082015181600101906000191690559050508280600101935050610270565b5b505050505050506103f2565b6060604051908101604052806000801916815260200160008019168152602001600063ffffffff1681525090565b6040805190810160405280600015158152602001600080191681525090565b8280548282559060005260206000209081019282156103bc579160200282015b828111156103bb57825182906000191690559160200191906001019061039a565b5b5090506103c991906103cd565b5090565b6103ef91905b808211156103eb5760008160009055506001016103d3565b5090565b90565b6106b5806104016000396000f3006080604052600436106100af576000357c0100000000000000000000000000000000000000000000000000000000900463ffffffff1680633477ee2e146100b457806342169e48146100fd578063597e1fb5146101285780636895a1f4146101575780636c6c32d0146101af5780639bc5e14e146101de578063a9a981a31461024d578063ad39b7eb14610278578063da58c7d9146102cf578063eeaaf19d14610318578063fee321251461036f575b600080fd5b3480156100c057600080fd5b506100df600480360381019080803590602001909291905050506103c6565b60405180826000191660001916815260200191505060405180910390f35b34801561010957600080fd5b506101126103e9565b6040518082815260200191505060405180910390f35b34801561013457600080fd5b5061013d6103ef565b604051808215151515815260200191505060405180910390f35b34801561016357600080fd5b506101866004803603810190808035600019169060200190929190505050610402565b604051808315151515815260200182600019166000191681526020019250505060405180910390f35b3480156101bb57600080fd5b506101c4610433565b604051808215151515815260200191505060405180910390f35b3480156101ea57600080fd5b5061020d6004803603810190808035600019169060200190929190505050610465565b60405180846000191660001916815260200183600019166000191681526020018263ffffffff1663ffffffff168152602001935050505060405180910390f35b34801561025957600080fd5b5061026261049f565b6040518082815260200191505060405180910390f35b34801561028457600080fd5b5061028d6104a5565b604051808273ffffffffffffffffffffffffffffffffffffffff1673ffffffffffffffffffffffffffffffffffffffff16815260200191505060405180910390f35b3480156102db57600080fd5b506102fa600480360381019080803590602001909291905050506104cb565b60405180826000191660001916815260200191505060405180910390f35b34801561032457600080fd5b50610355600480360381019080803560001916906020019092919080356000191690602001909291905050506104ee565b604051808215151515815260200191505060405180910390f35b34801561037b57600080fd5b506103a8600480360381019080803560001916906020019092919080359060200190929190505050610659565b60405180826000191660001916815260200191505060405180910390f35b6004818154811015156103d557fe5b906000526020600020016000915090505481565b60055481565b600760009054906101000a900460ff1681565b60006020528060005260406000206000915090508060000160009054906101000a900460ff16908060010154905082565b60006001600760006101000a81548160ff021916908315150217905550600760009054906101000a900460ff16905090565b60016020528060005260406000206000915090508060000154908060010154908060020160009054906101000a900463ffffffff16905083565b60065481565b600760019054906101000a900473ffffffffffffffffffffffffffffffffffffffff1681565b6003818154811015156104da57fe5b906000526020600020016000915090505481565b6000600760009054906101000a900460ff16806105325750600080846000191660001916815260200190815260200160002060000160009054906101000a900460ff165b8061055e5750600080600085600019166000191681526020019081526020016000206001015460001916145b1561056c5760009050610653565b6001600083600019166000191681526020019081526020016000206001015460001916600080856000191660001916815260200190815260200160002060010154600019161415156105c15760009050610653565b600160008360001916600019168152602001908152602001600020600201600081819054906101000a900463ffffffff168092919060010191906101000a81548163ffffffff021916908363ffffffff160217905550506001600080856000191660001916815260200190815260200160002060000160006101000a81548160ff021916908315150217905550600190505b92915050565b60026020528160005260406000208181548110151561067457fe5b906000526020600020016000915091505054815600a165627a7a72305820af487f35a2ee549bef2e2a5ddc2cdf249206374fe576f7ee4f02d559b069c2af0029",
  "source": "pragma solidity ^0.4.18;\n\ncontract Election {\n\n    // Represents a voter.\n    struct Voter {\n        bool voted;\n        bytes32 bucket;\n    }\n\n    // Represents a candidate.\n    struct Candidate {\n        bytes32 name;\n        bytes32 bucket;\n        uint32 votes;\n    }\n\n    // voter -> Voter representation that they can vote for.\n    mapping(bytes32 => Voter) public voterData;\n\n    // candidate name -> data associated with that candidate.\n    mapping(bytes32 => Candidate) public candidateTable;\n\n    // bucket -> candidate names in that bucket.\n    mapping(bytes32 => bytes32[]) public candidatesInBucket;\n\n    // list of voters\n    bytes32[] public voters;\n\n    // list of candidates\n    bytes32[] public candidates;\n\n    // number of voters\n    uint256 public voterCount;\n\n    // number of candidates\n    uint256 public candidateCount;\n\n    // indicates if the election is closed.\n    bool public closed;\n\n    // the person who created the contract.\n    address public electionOfficial;\n\n    // @notice creates a new election with registered voters and the candidates that the voters can vote for.\n    // @param _voters list of voters where voter is a hash(?) of the person voting, determined beforehand(?).\n    // @param _bucket corresponding \"bucket\" that the voter can vote within.\n    // @param _candidates list of candidates who are part of the election\n    // @param _candidateBucket the \n    constructor(\n        bytes32[] _voters, \n        bytes32[] _bucket, \n        bytes32[] _candidates,\n        bytes32[] _candidateBucket\n    )\n        public\n    {\n        if (_voters.length != _bucket.length || _candidates.length != _candidateBucket.length) {\n            return;\n        }\n        electionOfficial = msg.sender;\n        voters = _voters;\n        candidates = _candidates;\n        voterCount = _voters.length;\n        candidateCount = _candidates.length;\n\n        for (uint i = 0; i < _candidates.length; i++) {\n            Candidate memory candidate = Candidate(_candidates[i], _candidateBucket[i], 0);\n            candidateTable[_candidates[i]] = candidate;\n\n            candidatesInBucket[_candidateBucket[i]].push(_candidates[i]);\n        }\n\n        // Create new voters and add to contract\n        for (i = 0; i < _voters.length; i++) {\n            Voter memory voter = Voter(false, _bucket[i]);\n            voterData[_voters[i]] = voter;\n        }\n    }\n\n    // @notice Can be called by any address.\n    // @param hash(?) of the person voting, determined beforehand(?).\n    // @param candidate is the candidate \"id\" to which the voter is voting for.\n    // @return true if successful, false otherwise.\n    function vote(bytes32 voter, bytes32 candidate) public returns (bool) {\n        if (closed || voterData[voter].voted || voterData[voter].bucket == \"\") {\n            return false;\n        }\n        \n        // Trying to vote for wrong bucket.\n        if (voterData[voter].bucket != candidateTable[candidate].bucket) {\n            return false;\n        }\n\n        // Record vote.\n        candidateTable[candidate].votes++;\n        voterData[voter].voted = true;\n        \n        return true;\n    }\n\n    // @notice The Election Official is able to close the election. (Could be later done by time, not official).\n    //         Also gives results of the winner of a particular bucket group.\n    // @param _bucket the bucket that you want to know the result of.\n    // @return _winner the \"id\" of the candidate who is deemed the winner.\n    // @return _votes the # of votes for the winning candidate.\n    // function close(bytes32 _bucket) public returns (bytes32 _winner, uint32 _votes) {\n    //     if (msg.sender == electionOfficial) {\n    //         Candidate storage candidate = candidateTable[candidatesInBucket[_bucket][0]];\n\n    //         _winner = candidate.name;\n    //         _votes = candidate.votes;\n\n    //         // count votes and return result\n    //         for (uint i = 1; i < candidatesInBucket[_bucket].length; i++) {\n    //             candidate = candidateTable[candidatesInBucket[_bucket][i]];\n\n    //             if (candidate.votes > _votes) {\n    //                 _winner = candidate.name;\n    //                 _votes = candidate.votes;\n    //             }\n    //         }\n\n    //         closed = true;\n    //     }\n    // }\n\n    function closeElection() public returns (bool) {\n        closed = true;\n        return closed;\n    }\n}\n\n// Can use require() for checks\n",
  "sourcePath": "/Users/robertchung/workspace/eVoteMVP/contracts/Election.sol",
  "compiler": {
    "name": "solc",
    "version": "0.4.24+commit.e67f0147.Emscripten.clang"
  },
  "schemaVersion": "2.0.1",
  "updatedAt": "2018-09-26T19:25:11.205Z"
}